:020000001028C6
:10000800FE00030EF2000408F3000A08F40083124D
:1000180003137F08F5006D28112883120313A80124
:10002800830116288312031385018601831603139F
:10003800860181128B1601130B168B178312A701E9
:10004800A70AA501250A03193C280630A00000309C
:10005800A1002708F7007708A2002508D120013061
:10006800F700770883120313A507250A031D29281B
:100078000310A70D2708031D25280830F700770867
:10008800A700280803192228831603138501831261
:10009800A601260A031963280530A0000030A10034
:1000A8002708F7007708A2002608D1200130F700BA
:1000B800770883120313A607260A031D5028031086
:1000C800A70C2708031D4B281E3083160313850031
:1000D80022280B198B1E9528FA3081020B118316E2
:1000E800031305080319952883120313A80185181B
:1000F8007F2802308228051985280430A12010386D
:100108008D288519892802308C28051A91280430F1
:10011800A12083120313860095280130F10071088D
:10012800A80075088312FF0074088A007308840009
:10013800720E8300FE0E7E0E0900F000C528EE3018
:10014800080028300800CD3008006D3008002B303A
:10015800080067300800E73008002C300800EF304E
:1001680008006F300800AF300800E3300800C630E0
:100178000800E9300800C730080087300800003060
:10018800080070088400103004020318C3280130E6
:100198008A00003004078200080083120313A300BA
:1001A800A40128080319DF282008840083132118D4
:1001B8008317220880000130F600760883120313A3
:1001C800A407240823020318DF2828080319F228A3
:1001D800200884008317211C831380010130F60056
:0E01E800760883120313A40703190800F228F7
:10020000A328A528A728A928AB28AD28AF28B1285E
:10021000B328B528B728B928BB28BD28BF28C128CE
:02400E00FBFFB6
:00000001FF
