:020000001028C6
:10000800FE00030EF2000408F3000A08F40083124D
:1000180003137F08F5006E281128F70183120313D4
:10002800A90183011728831203138501860183160A
:100038000313860181128B1601130B168B1783127B
:10004800A801A80AA601260A03193D280630A0001F
:100058000030A1002808A5002508A2002608E220F3
:10006800013083120313A5002508A607260A031DDD
:100078002A280310A80D2808031D26280830A500E3
:100088002508A800290803192328831603138501C6
:100098008312A701270A031964280530A00000303D
:1000A800A1002808A5002508A2002708E2200130A1
:1000B80083120313A5002508A707270A031D512843
:1000C8000310A80C2808031D4C281E3083160313A0
:1000D800850023280B198B1EA628FA3081020B11E4
:1000E8008316031305080319A62883120313A9010D
:1000F8007708031D8128013082280030F10071083B
:10010800F700851889280230942805198D280430AD
:1001180094288519912808309428051AA2280F30A8
:10012800B220831203138600771C9E2883120313C0
:100138000616A628831203130612A6280130F1001A
:100148007108A90075088312FF0074088A007308F3
:100158008400720E8300FE0E7E0E0900F000D62881
:10016800EE30080028300800CD3008006D30080057
:100178002B30080067300800E73008002C300800F2
:10018800EF3008006F300800AF300800E330080097
:10019800C6300800E9300800C7300800873008007A
:1001A8000030080070088400103004020318D428B6
:1001B80001308A000C300407820008008312031300
:1001C800A300A40129080319F02820088400831338
:1001D80021188317220880000130F6007608831260
:1001E8000313A407240823020318F0282908031975
:1001F8000329200884008317211C83138001013000
:10020800F600760883120313A407031908000329CC
:10021800B428B628B828BA28BC28BE28C028C228BE
:10022800C428C628C828CA28CC28CE28D028D2282E
:02400E00FBFFB6
:00000001FF
