:04000000F7EF0DF019
:101000000001000A006400E80310270102040880C0
:101010004020104865792050494353696D2E6A730A
:101020002021004C69666520697320636F6F6C2016
:101030003A29005265762E204B6579626F617264A1
:101040003A002020205465737465204C43440020EE
:101050002020202020204F6B004144432052453067
:0B1060003A002534643B253364000097
:10106C00000E926E92CF80FF000E946E94CF82FF92
:10107C00000E956E95CF83FF000E846E010E966E5A
:10108C00AFEC0DF00C0E51EC0EF00A0E326E17D0C8
:10109C006FEC0CF0010E51EC0EF0800E51EC0EF0DA
:1010AC006C0E036E000E046EDBEC0CF0C00E51ECFB
:1010BC000EF0760E036E000E046EDBEC0CF0322E8E
:1010CC00E7D70F0E51EC0EF0010E51EC0EF0800E26
:1010DC0051EC0EF0420E036E100E046EDBEC0CF0B5
:1010EC00000E376E090E376401D00DD0110E226E32
:1010FC003A0EE82EFED7222EFCD700D0180E51EC5B
:10110C000EF0372AEFD7000E386E090E386401D076
:10111C000DD0110E226E3A0EE82EFED7222EFCD7E1
:10112C0000D01C0E51EC0EF0382AEFD7000E396EA1
:10113C00090E396401D00DD0110E226E3A0EE82E34
:10114C00FED7222EFCD700D0100E51EC0EF0392A0F
:10115C00EFD7000E3A6E090E3A6401D00DD0110E85
:10116C00226E3A0EE82EFED7222EFCD700D0140E9B
:10117C0051EC0EF03A2AEFD7400E51EC0EF0110E56
:10118C0040EC0EF0190E40EC0EF0150E40EC0EF08B
:10119C00130E40EC0EF0130E40EC0EF0150E40EC5E
:1011AC000EF0190E40EC0EF0110E40EC0EF00E0E7F
:1011BC0040EC0EF0110E40EC0EF00E0E40EC0EF06A
:1011CC00050E40EC0EF00E0E40EC0EF0140E40EC42
:1011DC000EF00A0E40EC0EF0110E40EC0EF0C00EAC
:1011EC0051EC0EF0000E3D6E0F0E3D6401D00ED092
:1011FC003D50010B40EC0EF0090E226E1C0EE82E39
:10120C00FED7222EFCD700D03D2AEED7010E51EC92
:10121C000EF0800E51EC0EF0420E036E100E046EAA
:10122C00DBEC0CF0200E406E200E406001D016D08E
:10123C0040C022F00F0E2216D8A403D0C00E51ECE1
:10124C000EF0405040EC0EF0050E226E0D0EE82E06
:10125C00FED7222EFCD700D0402AE6D7090E226EEC
:10126C001C0EE82EFED7222EFCD700D0010E51EC1E
:10127C000EF0800E51EC0EF0420E036E100E046E4A
:10128C00DBEC0CF0C00E51EC0EF04F0E036E100E9A
:10129C00046EDBEC0CF0290E226E940EE82EFED7B9
:1012AC00222EFCD700D0010E51EC0EF0800E51EC2A
:1012BC000EF0590E036E100E046EDBEC0CF0C00E2B
:1012CC0051EC0EF00C0E51EC0EF0C296C29AC28488
:1012DC00C288C280010E366E4D0E356E3DD0C28274
:1012EC00C2B2FED720EE62F010EE26F0090EDBCF74
:1012FC00E3FFE806FCE2C3CF22F0060E236ED89083
:10130C002232232EFCD72250C4CF24F0256AD89049
:10131C0024362536D890243625362410306E2550A8
:10132C00316E260E0D6E000E0E6E620E0F6E100ECE
:10133C00106E30C011F031C012F035C013F036C051
:10134C0014F043EC0AF0C00E51EC0EF0260E036EB6
:10135C00000E046EDBEC0CF03506D8A036063550CA
:10136C003610D8A4BCD7010E51EC0EF0800E51EC07
:10137C000EF0380E036E100E046EDBEC0CF0C00E8B
:10138C0051EC0EF0000E3B6E0F0E3B6401D00BD0F7
:10139C00E8EC0BF0336EC00E51EC0EF0335040EC19
:1013AC000EF03B2AF1D7010E51EC0EF0800E51ECF1
:1013BC000EF0330E036E100E046EDBEC0CF0C00E50
:1013CC0051EC0EF0000E3C6E0F0E3C6401D00BD0B5
:1013DC005DEC0BF0346EC00E51EC0EF0345040EC62
:1013EC000EF03C2AF1D7010E51EC0EF0800E51ECB0
:1013FC000EF0130E036E100E046EDBEC0CF0C00E30
:10140C0051EC0EF0230E036E100E046EDBEC0CF0A0
:10141C00010E416E000E3E6E310E3E6401D00BD0BB
:10142C00800E016E0F0E026E41C003F03E5012ECA6
:10143C000EF03E2AF1D7D89041364150D8A4EAD7C5
:10144C00010E416E41A602D0200E416E000E3F6E81
:10145C00310E3F6401D00BD0820E016E0F0E026E66
:10146C0041C003F03F5012EC0EF03F2AF1D7D89058
:10147C0041364150D8B4CCD7E5D7110E196E000EB9
:10148C001A6E02D1250E2118D8B409D00DC0D9FF7F
:10149C000EC0DAFF21C0DFFF0D4A0E2AF5D0000E78
:1014AC00206E000E1F6E000E1C6E0FC0F6FF10C0DB
:1014BC00F7FF0800F55072EC0EF0D8A032D0000EF9
:1014CC00206E000E1F6E1FC001F020C002F0000E37
:1014DC00046E0A0E036E2DEC0EF001C01FF002C05C
:1014EC0020F0D00E156EFF0E166E0FC0F6FF10C05A
:1014FC00F7FF0800F550176E186A1550172616508E
:10150C00182217501F26185020220F4A102A0FC0DD
:10151C00F6FF10C0F7FF0800F55072EC0EF0D8B0D3
:10152C00D2D70FC0F6FF10C0F7FF0F4A102A0800E1
:10153C00F5CF21F02150000AD8B4B2D0640AD8B447
:10154C0003D00D0AD8A4A0D019C0D9FF1AC0DAFF55
:10155C00DECF1DF0DDCF1EF0020E1926000E1A2272
:10156C001EAE06D0030E1C121D6C1E1ED8B01E2AF9
:10157C00010E216E050E2118D8B412D02150020D87
:10158C00010EF324F66E100EF420F76E0900F550E0
:10159C001D5C0900F5501E58D8A002D0212AEAD7AC
:1015AC001F502010D8B409D01CC015F0030E15160E
:1015BC00D8B403D01F06D8A02006800E21BE7F0E03
:1015CC00156E1F50215C2050800A1558D8B007D0DA
:1015DC0021501F5E000E21BEFF0E205A04D0000EBB
:1015EC00206E000E1F6E1F502010D8B40FD00DC0EF
:1015FC00D9FF0EC0DAFF200EDF6E0D4A0E2A1F0631
:10160C00D8A020061F502010D8A4F1D71CC015F06C
:10161C00030E1516D8B408D00DC0D9FF0EC0DAFFD2
:10162C002D0EDF6E0D4A0E2A21C01BF029D01B5047
:10163C00020D010EF324F66E100EF420F76E090065
:10164C00F5CF03F00A00F5CF04F01DC001F01EC069
:10165C0002F086EC0DF001C008F002C009F0000E9B
:10166C000B6E0A0E0A6ED6EC0DF00850300F216E80
:10167C000DC0D9FF0EC0DAFF21C0DFFF0D4A0E2AC4
:10168C001B061B28D8A4D3D70FC0F6FF10C0F7FF3A
:10169C000F4A102A0800F5CF21F02150D8A4F2D619
:1016AC000DC0D9FF0EC0DAFF000EDF6E1200000E67
:1016BC00126E000E116E000E186E81CF17F00F0E09
:1016CC00F66E100EF76E0900F5CF13F00900F5CF8A
:1016DC0014F00900F5CF15F00A00F5CF16F020EE46
:1016EC0052F010EE01F00F0EDBCFE3FFE806FCE248
:1016FC00070EC16E0F0E936E000E816E5CD0000E45
:10170C00196E030E196401D056D01950010D130E29
:10171C00F324D96E000EF420DA6EDF50FF0A81122A
:10172C0081B00AD0680EE82EFED781B005D081A01A
:10173C00FED71950010D0DD081B214D0680EE82ED1
:10174C00FED781B20FD081A2FED71950010D040E25
:10175C0022D0010EF324D96E000EF420DA6EDF5085
:10176C00186E29D081B40BD0680EE82EFED781B448
:10177C0006D081A4FED71950010D080E0CD081B6ED
:10178C000ED0680EE82EFED781B609D081A6FED702
:10179C001950010D0C0EF326000EF422DAD7195055
:1017AC00010D130EF324D96E000EF420DA6EDF5007
:1017BC008116192AA6D71850D8B4A1D717C081FF03
:1017CC0018501200000E166E81CF15F00B0EF66E2F
:1017DC00100EF76E0900F5CF11F00900F5CF12F0DD
:1017EC000900F5CF13F00A00F5CF14F020EE42F00B
:1017FC0010EE01F00F0EDBCFE3FFE806FCE2070E64
:10180C00C16EF00E936E000E816E5CD0000E176EE2
:10181C00030E176401D056D01750010D110EF3248E
:10182C00D96E000EF420DA6EDF50FF0A811281BEF1
:10183C000AD0680EE82EFED781BE05D081AEFED749
:10184C001750040D0DD081BC14D0680EE82EFED7B5
:10185C0081BC0FD081ACFED71750040D010E22D0E5
:10186C00010EF324D96E000EF420DA6EDF50166EE2
:10187C0029D081BA0BD0680EE82EFED781BA06D0DB
:10188C0081AAFED71750040D020E0CD081B80ED0D1
:10189C00680EE82EFED781B809D081A8FED7175064
:1018AC00040D030EF326000EF422DAD71750010DA7
:1018BC00110EF324D96E000EF420DA6EDF5081166F
:1018CC00172AA6D71650D8B4A1D715C081FF165029
:1018DC0012008DEC0EF0D00E55EC0DF0000E55EC08
:1018EC000DF08DEC0EF0D10E55EC0DF0010E1BEC45
:1018FC000DF07F0B066E3A0E7B6E065099EC0EF0D7
:10190C007C6E06509FEC0EF07D6E000E7E6E010E0E
:10191C001BEC0DF07F0B066E3A0E786E065099ECB0
:10192C000EF0796E06509FEC0EF07A6E010E1BECE9
:10193C000DF03F0B066E065099EC0EF0766E0650CD
:10194C009FEC0EF0776E010E1BEC0DF0010E1BECF4
:10195C000DF03F0B066E065099EC0EF06C6E0650B7
:10196C009FEC0EF06D6E010E1BEC0DF01F0B066E56
:10197C002F0E6E6E065099EC0EF06F6E06509FECAB
:10198C000EF0706E000E1BEC0DF0066E2F0E716ECD
:10199C00065099EC0EF0726E06509FEC0EF0736EC2
:1019AC00000E746E81EC0EF01200000E076E1ED04D
:1019BC000750010D03C005F004C006F0F3500526D6
:1019CC00F450062205C0F6FF06C0F7FF000EF86EB5
:1019DC000F0EF76403D00800F55005D0F6CFE9FFE1
:1019EC00F7CFEAFFEF5040EC0EF0072A0750010D3D
:1019FC0003C005F004C006F0F3500526F45006228F
:101A0C0005C0F6FF06C0F7FF000EF86E0F0EF76468
:101A1C0003D00800F55005D0F6CFE9FFF7CFEAFF69
:101A2C00EF500009D8B41200C3D7036E000E046E39
:101A3C00829694888288000E056E070E056401D08C
:101A4C001BD08286D00EE82EFED700F00550000881
:101A5C00016E070E012682A803D0026A022A01D069
:101A6C00026A012A02D0D8900236012EFCD702500D
:101A7C0004128296052AE1D794980350D8B402D068
:101A8C00829801D08288D00EE82EFED700F0828694
:101A9C00D00EE82EFED700F0829604501200036E92
:101AAC008296000E046E070E046401D01DD0045003
:101ABC000008016E070E012603C002F0012A02D0B5
:101ACC00D8900232012EFCD7010E0216023A825037
:101ADC000218EF0B0218826E8286D00EE82EFED70B
:101AEC0000F08296042ADFD78288D00EE82EFED72B
:101AFC0000F08286D00EE82EFED700F082961200FF
:101B0C00000E066E000E056E03500410D8B41CD0E7
:101B1C00010E076E04D0D89003360436072A04AEA3
:101B2C00FAD7D890053606360350015C045002589B
:101B3C00D8A005D00350015E0450025A0580D890FD
:101B4C0004320332072EEDD705C001F006C002F0B7
:101B5C00120084928494FA0E00D0E82EFDD7848271
:101B6C00380E51EC0EF0680EE82EFED7380E51EC04
:101B7C000EF0140EE82EFED700D0380E51EC0EF0FD
:101B8C00080E51EC0EF00F0E51EC0EF0010E51EC54
:101B9C000EF0380E51EC0EF0800E51EC0EF01200DF
:101BAC000A500B10D8B418D0010E0C6E04D0D8907B
:101BBC000A360B360C2A0BAEFAD70A50085C0B50BF
:101BCC000958D8A004D00A50085E0B50095AD89076
:101BDC000B320A320C2EF1D708C008F009C009F0FC
:101BEC001200C40EF66E1C0EF76E000EF86E00EEB0
:101BFC0042F010EE20F00900F5CFEEFFE550E15079
:101C0C00FAE100EE62F01E0EEE6AE806FDE1000E4F
:101C1C00F86E000136EF08F0046E000E076E310E00
:101C2C00076401D012000450075CD8A005D0000E48
:101C3C00066E000E056E03D003C005F0066A01C0E7
:101C4C00D9FF02C0DAFF05C0DFFF072AE8D7015031
:101C5C000302F3CF05F0F4CF06F001500402F35069
:101C6C00062602500302F350062605C001F006C0FA
:101C7C0002F01200026E84820250A4EC0EF08484F6
:101C8C003E0EE82EFED700F084923E0EE82EFED7D4
:101C9C0000F084821200026E84820250A4EC0EF0DA
:101CAC0084943E0EE82EFED700F084923E0EE82E71
:101CBC00FED700F0848212003132332B3435362DAE
:101CCC003738392F2A3023243132332B3435362D03
:101CDC003738392F2A302324036E000E026E3A0E49
:101CEC00036005D02F0E036402D0010E026E02C0F9
:101CFC0001F00130120082868298D00EE82EFED7B9
:101D0C0000F08288D00EE82EFED700F012008286FA
:101D1C008288D00EE82EFED700F08298D00EE82EE6
:101D2C00FED700F01200016E01380F0B0F0B300FB5
:101D3C001200016E01500F0B300F1200016E01C02A
:041D4C0083FF1200FF
:020000040030CA
:0E000000FF06181EFF8180FF0FC00FE00F40AB
:00000001FF
