:04000000E7EF0DF029
:101000000001000A006400E80310270102040880C0
:101010004020104865792050494353696D2E6A730A
:101020002021004C69666520697320636F6F6C2016
:101030003A29005265762E204B6579626F617264A1
:101040003A002020205465737465204C43440020EE
:101050002020202020204F6B004144432052453067
:0B1060003A002534643B253364000097
:10106C00000E826E82CF80FF000E946E94CF92FFA2
:10107C00000E846E84CF83FF000E956E010E966E6B
:10108C009FEC0DF0160E326E17D05FEC0CF0010ECB
:10109C003DEC0EF0800E3DEC0EF06C0E036E000E6F
:1010AC00046ECBEC0CF0C00E3DEC0EF0760E036E25
:1010BC00000E046ECBEC0CF0322EE7D7010E3DEC9B
:1010CC000EF0800E3DEC0EF0420E036E100E046E10
:1010DC00CBEC0CF0000E376E090E376401D00CD03F
:1010EC00040E226E3E0EE82EFED7222EFCD7180ED2
:1010FC003DEC0EF0372AF0D7000E386E090E38642E
:10110C0001D00CD0040E226E3E0EE82EFED7222EFD
:10111C00FCD71C0E3DEC0EF0382AF0D7000E396EC1
:10112C00090E396401D00CD0040E226E3E0EE82E4E
:10113C00FED7222EFCD7100E3DEC0EF0392AF0D73C
:10114C00000E3A6E090E3A6401D00CD0040E226ED9
:10115C003E0EE82EFED7222EFCD7140E3DEC0EF0E0
:10116C003A2AF0D7400E3DEC0EF0110E2CEC0EF09E
:10117C00190E2CEC0EF0150E2CEC0EF0130E2CECB4
:10118C000EF0130E2CEC0EF0150E2CEC0EF0190EBE
:10119C002CEC0EF0110E2CEC0EF00E0E2CEC0EF0C6
:1011AC00110E2CEC0EF00E0E2CEC0EF0050E2CECA1
:1011BC000EF00E0E2CEC0EF0140E2CEC0EF00A0EA3
:1011CC002CEC0EF0110E2CEC0EF0C00E3DEC0EF0D3
:1011DC00000E3D6E0F0E3D6401D00AD03D50010B48
:1011EC002CEC0EF0FA0E00D0E82EFDD73D2AF2D7EB
:1011FC00010E3DEC0EF0800E3DEC0EF0420E036E37
:10120C00100E046ECBEC0CF0200E406E200E4060E5
:10121C0001D012D040C022F00F0E2216D8A403D059
:10122C00C00E3DEC0EF040502CEC0EF0D00EE82E23
:10123C00FED700F0402AEAD7FA0E00D0E82EFDD7F0
:10124C00010E3DEC0EF0800E3DEC0EF0420E036EE6
:10125C00100E046ECBEC0CF0C00E3DEC0EF04F0EED
:10126C00036E100E046ECBEC0CF0090E226E1C0EED
:10127C00E82EFED7222EFCD700D0010E3DEC0EF04E
:10128C00800E3DEC0EF0590E036E100E046ECBEC7E
:10129C000CF0C00E3DEC0EF00C0E3DEC0EF0C296B8
:1012AC00C29AC284C288C280010E366E4D0E356E53
:1012BC003DD0C282C2B2FED720EE62F010EE26F014
:1012CC00090EDBCFE3FFE806FCE2C3CF22F0060EEB
:1012DC00236ED8902232232EFCD72250C4CF24F078
:1012EC00256AD89024362536D890243625362410F5
:1012FC00306E2550316E260E0D6E000E0E6E620E87
:10130C000F6E100E106E30C011F031C012F035C0DF
:10131C0013F036C014F02BEC0AF0C00E3DEC0EF0BE
:10132C00260E036E000E046ECBEC0CF03506D8A026
:10133C00360635503610D8A4BCD7010E3DEC0EF055
:10134C00800E3DEC0EF0380E036E100E046ECBECDE
:10135C000CF0C00E3DEC0EF0000E3B6E0F0E3B641D
:10136C0001D00BD0D4EC0BF0336EC00E3DEC0EF074
:10137C0033502CEC0EF03B2AF1D7010E3DEC0EF065
:10138C00800E3DEC0EF0330E036E100E046ECBECA3
:10139C000CF0C00E3DEC0EF0000E3C6E0F0E3C64DB
:1013AC0001D00BD045EC0BF0346EC00E3DEC0EF0C2
:1013BC0034502CEC0EF03C2AF1D7010E3DEC0EF023
:1013CC00800E3DEC0EF0130E036E100E046ECBEC83
:1013DC000CF0C00E3DEC0EF0230E036E100E046EDE
:1013EC00CBEC0CF0010E416E000E3E6E3E28D8B4D4
:1013FC000BD0800E016E0F0E026E41C003F03E50FA
:10140C0002EC0EF03E2AF2D7D89041364150D8A4C7
:10141C00EBD7010E416E41A602D0200E416E000E9C
:10142C003F6E3F28D8B40BD0820E016E0F0E026EA9
:10143C0041C003F03F5002EC0EF03F2AF2D7D89097
:10144C0041364150D8B4CED7E6D7110E196E000EE6
:10145C001A6E02D1250E2118D8B409D00DC0D9FFAF
:10146C000EC0DAFF21C0DFFF0D4A0E2AF5D0000EA8
:10147C00206E000E1F6E000E1C6E0FC0F6FF10C00B
:10148C00F7FF0800F5505EEC0EF0D8A032D0000E3D
:10149C00206E000E1F6E1FC001F020C002F0000E67
:1014AC00046E0A0E036E19EC0EF001C01FF002C0A0
:1014BC0020F0D00E156EFF0E166E0FC0F6FF10C08A
:1014CC00F7FF0800F550176E186A155017261650BE
:1014DC00182217501F26185020220F4A102A0FC00E
:1014EC00F6FF10C0F7FF0800F5505EEC0EF0D8B018
:1014FC00D2D70FC0F6FF10C0F7FF0F4A102A080012
:10150C00F5CF21F02150000AD8B4B2D0640AD8B477
:10151C0003D00D0AD8A4A0D019C0D9FF1AC0DAFF85
:10152C00DECF1DF0DDCF1EF0020E1926000E1A22A2
:10153C001EAE06D0030E1C121D6C1E1ED8B01E2A29
:10154C00010E216E050E2118D8B412D02150020DB7
:10155C00010EF324F66E100EF420F76E0900F55010
:10156C001D5C0900F5501E58D8A002D0212AEAD7DC
:10157C001F502010D8B409D01CC015F0030E15163E
:10158C00D8B403D01F06D8A02006800E21BE7F0E33
:10159C00156E1F50215C2050800A1558D8B007D00A
:1015AC0021501F5E000E21BEFF0E205A04D0000EEB
:1015BC00206E000E1F6E1F502010D8B40FD00DC01F
:1015CC00D9FF0EC0DAFF200EDF6E0D4A0E2A1F0661
:1015DC00D8A020061F502010D8A4F1D71CC015F09D
:1015EC00030E1516D8B408D00DC0D9FF0EC0DAFF03
:1015FC002D0EDF6E0D4A0E2A21C01BF029D01B5078
:10160C00020D010EF324F66E100EF420F76E090095
:10161C00F5CF03F00A00F5CF04F01DC001F01EC099
:10162C0002F076EC0DF001C008F002C009F0000EDB
:10163C000B6E0A0E0A6EC6EC0DF00850300F216EC0
:10164C000DC0D9FF0EC0DAFF21C0DFFF0D4A0E2AF4
:10165C001B061B28D8A4D3D70FC0F6FF10C0F7FF6A
:10166C000F4A102A0800F5CF21F02150D8A4F2D649
:10167C000DC0D9FF0EC0DAFF000EDF6E1200000E97
:10168C00126E000E116E000E186E81CF17F00F0E39
:10169C00F66E100EF76E0900F5CF13F00900F5CFBA
:1016AC0014F00900F5CF15F00A00F5CF16F020EE76
:1016BC0052F010EE01F00F0EDBCFE3FFE806FCE278
:1016CC00070EC16E0F0E936E000E816E60D0000E71
:1016DC00196E030E196401D05AD01950010D130E56
:1016EC00F324D96E000EF420DA6EDF50FF0A81125B
:1016FC0081B00BD0140EE82EFED700D081B005D0EF
:10170C0081A0FED71950010D0ED081B215D0140E48
:10171C00E82EFED700D081B20FD081A2FED719508F
:10172C00010D040E24D0010EF324D96E000EF4200A
:10173C00DA6EDF50186E2BD081B40CD0140EE82E5C
:10174C00FED700D081B406D081A4FED71950010D6C
:10175C00080E0DD081B60FD0140EE82EFED700D097
:10176C0081B609D081A6FED71950010D0C0EF326B7
:10177C00000EF422D8D71950010D130EF324D96E94
:10178C00000EF420DA6EDF508116192AA2D71850F9
:10179C00D8B49DD717C081FF18501200000E166EDA
:1017AC0081CF15F00B0EF66E100EF76E0900F5CF0B
:1017BC0011F00900F5CF12F00900F5CF13F00A0073
:1017CC00F5CF14F020EE42F010EE01F00F0EDBCF4F
:1017DC00E3FFE806FCE2070EC16EF00E936E000EFE
:1017EC00816E60D0000E176E030E176401D05AD0B4
:1017FC001750010D110EF324D96E000EF420DA6E81
:10180C00DF50FF0A811281BE0BD0140EE82EFED7DA
:10181C0000D081BE05D081AEFED71750040D0ED07E
:10182C0081BC15D0140EE82EFED700D081BC0FD091
:10183C0081ACFED71750040D010E24D0010EF324F9
:10184C00D96E000EF420DA6EDF50166E2BD081BAF2
:10185C000CD0140EE82EFED700D081BA06D081AA87
:10186C00FED71750040D020E0DD081B80FD0140EF8
:10187C00E82EFED700D081B809D081A8FED717502A
:10188C00040D030EF326000EF422D8D71750010DC9
:10189C00110EF324D96E000EF420DA6EDF5081168F
:1018AC00172AA2D71650D8B49DD715C081FF165051
:1018BC00120079EC0EF0D00E45EC0DF0000E45EC5C
:1018CC000DF079EC0EF0D10E45EC0DF0010E0BEC99
:1018DC000DF07F0B066E3A0E7B6E065085EC0EF00B
:1018EC007C6E06508BEC0EF07D6E000E7E6E010E43
:1018FC000BEC0DF07F0B066E3A0E786E065085ECF5
:10190C000EF0796E06508BEC0EF07A6E010E0BEC2D
:10191C000DF03F0B066E065085EC0EF0766E065001
:10192C008BEC0EF0776E010E0BEC0DF0010E0BEC48
:10193C000DF03F0B066E065085EC0EF06C6E0650EB
:10194C008BEC0EF06D6E010E0BEC0DF01F0B066E9A
:10195C002F0E6E6E065085EC0EF06F6E06508BECF3
:10196C000EF0706E000E0BEC0DF0066E2F0E716EFD
:10197C00065085EC0EF0726E06508BEC0EF0736E0A
:10198C00000E746E6DEC0EF01200000E076E1ED081
:10199C000750010D03C005F004C006F0F3500526F6
:1019AC00F450062205C0F6FF06C0F7FF000EF86ED5
:1019BC000F0EF76403D00800F55005D0F6CFE9FF01
:1019CC00F7CFEAFFEF502CEC0EF0072A0750010D71
:1019DC0003C005F004C006F0F3500526F4500622AF
:1019EC0005C0F6FF06C0F7FF000EF86E0F0EF76489
:1019FC0003D00800F55005D0F6CFE9FFF7CFEAFF8A
:101A0C00EF500009D8B41200C3D7036E000E046E59
:101A1C00829694888288000E056E070E056401D0AC
:101A2C001BD08286290EE82EFED700D00550000868
:101A3C00016E070E012682A803D0026A022A01D089
:101A4C00026A012A02D0D8900236012EFCD702502D
:101A5C0004128296052AE1D794980350D8B402D088
:101A6C00829801D08288290EE82EFED700D082867B
:101A7C00290EE82EFED700D0829604501200036E79
:101A8C008296000E046E070E046401D01DD0045023
:101A9C000008016E070E012603C002F0012A02D0D5
:101AAC00D8900232012EFCD7010E0216023A825057
:101ABC000218EF0B0218826E8286290EE82EFED7D2
:101ACC0000D08296042ADFD78288290EE82EFED712
:101ADC0000D08286290EE82EFED700D08296120006
:101AEC00000E066E000E056E03500410D8B41CD008
:101AFC00010E076E04D0D89003360436072A04AEC4
:101B0C00FAD7D890053606360350015C04500258BB
:101B1C00D8A005D00350015E0450025A0580D8901D
:101B2C0004320332072EEDD705C001F006C002F0D7
:101B3C00120084928494530EE82EFED700F0848217
:101B4C00380E3DEC0EF0140EE82EFED700D0380EF9
:101B5C003DEC0EF0040EE82EFED7380E3DEC0EF0E8
:101B6C00080E3DEC0EF00F0E3DEC0EF0010E3DECB0
:101B7C000EF0380E3DEC0EF0800E3DEC0EF0120027
:101B8C000A500B10D8B418D0010E0C6E04D0D8909B
:101B9C000A360B360C2A0BAEFAD70A50085C0B50DF
:101BAC000958D8A004D00A50085E0B50095AD89096
:101BBC000B320A320C2EF1D708C008F009C009F01C
:101BCC0012009C0EF66E1C0EF76E000EF86E00EEF8
:101BDC0042F010EE20F00900F5CFEEFFE550E15099
:101BEC00FAE100EE62F01E0EEE6AE806FDE1000E70
:101BFC00F86E000136EF08F0046E000E056E01C0A1
:101C0C00D9FF02C0DAFF03C0DFFF052A0550045CD0
:101C1C00D8B0FBD701C0D9FF02C0DAFF000EDF6ECF
:101C2C00053EFED7120001500302F3CF05F0F4CFAE
:101C3C0006F001500402F350062602500302F35042
:101C4C00062605C001F006C002F01200026E848266
:101C5C00025090EC0EF084840C0EE82EFED700F0AF
:101C6C0084920C0EE82EFED700F084821200026ED5
:101C7C008482025090EC0EF084940C0EE82EFED769
:101C8C0000F084920C0EE82EFED700F08482120035
:101C9C003132332B3435362D3738392F2A30232433
:101CAC003132332B3435362D3738392F2A30232423
:101CBC00036E000E026E3A0E036005D02F0E036405
:101CCC0002D0010E026E02C001F0013012008286B9
:101CDC008298290EE82EFED700D08288290EE82E95
:101CEC00FED700D0120082868288290EE82EFED7FD
:101CFC0000D08298290EE82EFED700D01200016E7B
:101D0C0001380F0B0F0B300F1200016E01500F0B2F
:0C1D1C00300F1200016E01C083FF1200A6
:020000040030CA
:0E000000FF06181EFF8180FF0FC00FE00F40AB
:00000001FF
