:0400000016EF0EF0F9
:101000000001000A006400E80310270102040880C0
:101010004020104865792050494353696D2E6A730A
:101020002021004C69666520697320636F6F6C2016
:101030003A29005265762E204B6579626F617264A1
:101040003A002020205465737465204C43440020EE
:101050002020202020204F6B004144432052453067
:0B1060003A002534643B253364000097
:10106C00000E926E92CF80FF000E946E94CF82FF92
:10107C00000E956E95CF83FF000E846E010E966E5A
:10108C00A0EC0DF00C0EB1EC0EF00A0E326E17D077
:10109C0077EC0CF0010EB1EC0EF0800EB1EC0EF012
:1010AC006C0E036E000E046E26EC0DF0C00EB1EC4F
:1010BC000EF0760E036E000E046E26EC0DF0322E42
:1010CC00E7D70F0EB1EC0EF0010EB1EC0EF0800E66
:1010DC00B1EC0EF0420E036E100E046E26EC0DF009
:1010EC00000E376E090E376401D00DD0410E226E02
:1010FC00EE0EE82EFED7222EFCD700D0180EB1EC47
:10110C000EF0372AEFD7000E386E090E386401D076
:10111C000DD0410E226EEE0EE82EFED7222EFCD7FD
:10112C0000D01C0EB1EC0EF0382AEFD7000E396E41
:10113C00090E396401D00DD0410E226EEE0EE82E50
:10114C00FED7222EFCD700D0100EB1EC0EF0392AAF
:10115C00EFD7000E3A6E090E3A6401D00DD0410E55
:10116C00226EEE0EE82EFED7222EFCD700D0140EE7
:10117C00B1EC0EF03A2AEFD7400EB1EC0EF0110E96
:10118C00A2EC0EF0190EA2EC0EF0150EA2EC0EF065
:10119C00130EA2EC0EF0130EA2EC0EF0150EA2EC38
:1011AC000EF0190EA2EC0EF0110EA2EC0EF00E0EBB
:1011BC00A2EC0EF0110EA2EC0EF00E0EA2EC0EF044
:1011CC00050EA2EC0EF00E0EA2EC0EF0140EA2EC1C
:1011DC000EF00A0EA2EC0EF0110EA2EC0EF0C00EE8
:1011EC00B1EC0EF0000E3D6E0F0E3D6401D00ED032
:1011FC003D50010BA2EC0EF0210E226E760EE82E65
:10120C00FED7222EFCD700D03D2AEED7010EB1EC32
:10121C000EF0800EB1EC0EF0420E036E100E046E4A
:10122C0026EC0DF0200E406E200E406001D016D042
:10123C0040C022F00F0E2216D8A403D0C00EB1EC81
:10124C000EF04050A2EC0EF0110E226E3A0EE82E6B
:10125C00FED7222EFCD700D0402AE6D7210E226ED4
:10126C00760EE82EFED7222EFCD700D0010EB1EC64
:10127C000EF0800EB1EC0EF0420E036E100E046EEA
:10128C0026EC0DF0C00EB1EC0EF04F0E036E100EEE
:10129C00046E26EC0DF0A30E226E550EE82EFED732
:1012AC00222EFCD700F0010EB1EC0EF0800EB1EC4A
:1012BC000EF0590E036E100E046E26EC0DF0C00EDF
:1012CC00B1EC0EF00C0EB1EC0EF0C296C29AC284C8
:1012DC00C288C280010E366E4D0E356E3DD0C28274
:1012EC00C2B2FED720EE62F010EE26F0090EDBCF74
:1012FC00E3FFE806FCE2C3CF22F0060E236ED89083
:10130C002232232EFCD72250C4CF24F0256AD89049
:10131C0024362536D890243625362410306E2550A8
:10132C00316E260E0D6E000E0E6E620E0F6E100ECE
:10133C00106E30C011F031C012F035C013F036C051
:10134C0014F043EC0AF0C00EB1EC0EF0260E036E56
:10135C00000E046E26EC0DF03506D8A0360635507E
:10136C003610D8A4BCD7010EB1EC0EF0800EB1EC47
:10137C000EF0380E036E100E046E26EC0DF0C00E3F
:10138C00B1EC0EF0000E3B6E0F0E3B6401D00BD097
:10139C00ECEC0BF0336EC00EB1EC0EF03350A2EC53
:1013AC000EF03B2AF1D7010EB1EC0EF0800EB1EC31
:1013BC000EF0330E036E100E046E26EC0DF0C00E04
:1013CC00B1EC0EF0000E3C6E0F0E3C6401D00BD055
:1013DC005DEC0BF0346EC00EB1EC0EF03450A2ECA0
:1013EC000EF03C2AF1D7010EB1EC0EF0800EB1ECF0
:1013FC000EF0130E036E100E046E26EC0DF0C00EE4
:10140C00B1EC0EF0230E036E100E046E26EC0DF0F4
:10141C00010E416E000E3E6E630E3E6401D00BD089
:10142C00800E016E0F0E026E41C003F03E5031EC87
:10143C000EF03E2AF1D7D89041364150D8A4EAD7C5
:10144C00010E416E41A602D0200E416E000E3F6E81
:10145C00630E3F6401D00BD0820E016E0F0E026E34
:10146C0041C003F03F5031EC0EF03F2AF1D7D89039
:10147C0041364150D8B4CCD7E5D7110E196E000EB9
:10148C001A6E02D1250E2118D8B409D00DC0D9FF7F
:10149C000EC0DAFF21C0DFFF0D4A0E2AF5D0000E78
:1014AC00206E000E1F6E000E1C6E0FC0F6FF10C0DB
:1014BC00F7FF0800F55093EC0EF0D8A032D0000ED8
:1014CC00206E000E1F6E1FC001F020C002F0000E37
:1014DC00046E0A0E036E4CEC0EF001C01FF002C03D
:1014EC0020F0D00E156EFF0E166E0FC0F6FF10C05A
:1014FC00F7FF0800F550176E186A1550172616508E
:10150C00182217501F26185020220F4A102A0FC0DD
:10151C00F6FF10C0F7FF0800F55093EC0EF0D8B0B2
:10152C00D2D70FC0F6FF10C0F7FF0F4A102A0800E1
:10153C00F5CF21F02150000AD8B4B2D0640AD8B447
:10154C0003D00D0AD8A4A0D019C0D9FF1AC0DAFF55
:10155C00DECF1DF0DDCF1EF0020E1926000E1A2272
:10156C001EAE06D0030E1C121D6C1E1ED8B01E2AF9
:10157C00010E216E050E2118D8B412D02150020D87
:10158C00010EF324F66E100EF420F76E0900F550E0
:10159C001D5C0900F5501E58D8A002D0212AEAD7AC
:1015AC001F502010D8B409D01CC015F0030E15160E
:1015BC00D8B403D01F06D8A02006800E21BE7F0E03
:1015CC00156E1F50215C2050800A1558D8B007D0DA
:1015DC0021501F5E000E21BEFF0E205A04D0000EBB
:1015EC00206E000E1F6E1F502010D8B40FD00DC0EF
:1015FC00D9FF0EC0DAFF200EDF6E0D4A0E2A1F0631
:10160C00D8A020061F502010D8A4F1D71CC015F06C
:10161C00030E1516D8B408D00DC0D9FF0EC0DAFFD2
:10162C002D0EDF6E0D4A0E2A21C01BF029D01B5047
:10163C00020D010EF324F66E100EF420F76E090065
:10164C00F5CF03F00A00F5CF04F01DC001F01EC069
:10165C0002F0CCEC0DF001C008F002C009F0000E55
:10166C000B6E0A0E0A6EF5EC0DF00850300F216E61
:10167C000DC0D9FF0EC0DAFF21C0DFFF0D4A0E2AC4
:10168C001B061B28D8A4D3D70FC0F6FF10C0F7FF3A
:10169C000F4A102A0800F5CF21F02150D8A4F2D619
:1016AC000DC0D9FF0EC0DAFF000EDF6E1200000E67
:1016BC00126E000E116E000E186E81CF17F00F0E09
:1016CC00F66E100EF76E0900F5CF13F00900F5CF8A
:1016DC0014F00900F5CF15F00A00F5CF16F020EE46
:1016EC0052F010EE01F00F0EDBCFE3FFE806FCE248
:1016FC00070EC16E0F0E936E000E816E60D0000E41
:10170C00196E030E196401D05AD01950010D130E25
:10171C00F324D96E000EF420DA6EDF50FF0A81122A
:10172C0081B00BD0FA0E00D0E82EFDD781B005D0D9
:10173C0081A0FED71950010D0ED081B215D0FA0E32
:10174C0000D0E82EFDD781B20FD081A2FED7195060
:10175C00010D040E24D0010EF324D96E000EF420DA
:10176C00DA6EDF50186E2BD081B40CD0FA0E00D08C
:10177C00E82EFDD781B406D081A4FED71950010DF7
:10178C00080E0DD081B60FD0FA0E00D0E82EFDD782
:10179C0081B609D081A6FED71950010D0C0EF32687
:1017AC00000EF422D8D71950010D130EF324D96E64
:1017BC00000EF420DA6EDF508116192AA2D71850C9
:1017CC00D8B49DD717C081FF18501200000E166EAA
:1017DC0081CF15F00B0EF66E100EF76E0900F5CFDB
:1017EC0011F00900F5CF12F00900F5CF13F00A0043
:1017FC00F5CF14F020EE42F010EE01F00F0EDBCF1F
:10180C00E3FFE806FCE2070EC16EF00E936E000ECD
:10181C00816E60D0000E176E030E176401D05AD083
:10182C001750010D110EF324D96E000EF420DA6E50
:10183C00DF50FF0A811281BE0BD0FA0E00D0E82EC9
:10184C00FDD781BE05D081AEFED71750040D0ED04A
:10185C0081BC15D0FA0E00D0E82EFDD781BC0FD07C
:10186C0081ACFED71750040D010E24D0010EF324C9
:10187C00D96E000EF420DA6EDF50166E2BD081BAC2
:10188C000CD0FA0E00D0E82EFDD781BA06D081AA72
:10189C00FED71750040D020E0DD081B80FD0FA0EE2
:1018AC0000D0E82EFDD781B809D081A8FED71750FB
:1018BC00040D030EF326000EF422D8D71750010D99
:1018CC00110EF324D96E000EF420DA6EDF5081165F
:1018DC00172AA2D71650D8B49DD715C081FF165021
:1018EC00120071EC0EF0D00E66EC0DF0000E66ECF2
:1018FC000DF071EC0EF0D10E66EC0DF0010EE3EC78
:10190C000CF07F0B066E3A0E7B6E0650C0EC0EF0A0
:10191C007C6E0650C6EC0EF07D6E000E7E6E010ED7
:10192C00E3EC0CF07F0B066E3A0E786E0650C0ECB2
:10193C000EF0796E0650C6EC0EF07A6E010EE3ECEA
:10194C000CF03F0B066E0650C0EC0EF0766E065097
:10195C00C6EC0EF0776E010EE3EC0CF0010EE3EC2E
:10196C000CF03F0B066E0650C0EC0EF06C6E065081
:10197C00C6EC0EF06D6E010EE3EC0CF01F0B066E58
:10198C002F0E6E6E0650C0EC0EF06F6E0650C6EC4D
:10199C000EF0706E000EE3EC0CF0066E2F0E716EF6
:1019AC000650C0EC0EF0726E0650C6EC0EF0736E64
:1019BC00000E746E5FEC0EF01200036E000E046EDF
:1019CC00829694888288000E056E070E056401D0FD
:1019DC001ED08286040E016E3E0EE82EFED7012E1E
:1019EC00FCD705500008016E070E012682A803D013
:1019FC00026A022A01D0026A012A02D0D890023669
:101A0C00012EFCD7025004128296052ADED7949838
:101A1C000350D8B402D0829801D08288040E016E93
:101A2C003E0EE82EFED7012EFCD78286040E016EE8
:101A3C003E0EE82EFED7012EFCD7829604501200E3
:101A4C00000E076E1ED00750010D03C005F004C038
:101A5C0006F0F3500526F450062205C0F6FF06C02A
:101A6C00F7FF000EF86E0F0EF76403D00800F55068
:101A7C0005D0F6CFE9FFF7CFEAFFEF50A2EC0EF05E
:101A8C00072A0750010D03C005F004C006F0F350FF
:101A9C000526F450062205C0F6FF06C0F7FF000E1F
:101AAC00F86E0F0EF76403D00800F55005D0F6CF92
:101ABC00E9FFF7CFEAFFEF500009D8B41200C3D703
:101ACC00036E8296000E046E070E046401D020D0C3
:101ADC0004500008016E070E012603C002F0012A13
:101AEC0002D0D8900232012EFCD7010E0216023A17
:101AFC0082500218EF0B0218826E8286040E016E61
:101B0C003E0EE82EFED7012EFCD78296042ADCD797
:101B1C008288040E016E3E0EE82EFED7012EFCD7F5
:101B2C008286040E016E3E0EE82EFED7012EFCD7E7
:101B3C008296120084928494070E036E7D0EE82E1A
:101B4C00FED7032EFCD700F08482380EB1EC0EF0D9
:101B5C00FA0E00D0E82EFDD7380EB1EC0EF0530E75
:101B6C00E82EFED700F0380EB1EC0EF0080EB1ECFA
:101B7C000EF00F0EB1EC0EF0010EB1EC0EF0380EB3
:101B8C00B1EC0EF0800EB1EC0EF01200000E066EF1
:101B9C00000E056E03500410D8B41CD0010E076E55
:101BAC0004D0D89003360436072A04AEFAD7D8905E
:101BBC00053606360350015C04500258D8A005D0F7
:101BCC000350015E0450025A0580D890043203324F
:101BDC00072EEDD705C001F006C002F012000A5026
:101BEC000B10D8B418D0010E0C6E04D0D8900A3655
:101BFC000B360C2A0BAEFAD70A50085C0B5009585E
:101C0C00D8A004D00A50085E0B50095AD8900B3259
:101C1C000A320C2EF1D708C008F009C009F01200E6
:101C2C00060EF66E1D0EF76E000EF86E00EE42F00C
:101C3C0010EE20F00900F5CFEEFFE550E150FAE18F
:101C4C0000EE62F01E0EEE6AE806FDE1000EF86E84
:101C5C00000136EF08F0046E000E076E630E076489
:101C6C0001D012000450075CD8A005D0000E066EFF
:101C7C00000E056E03D003C005F0066A01C0D9FF43
:101C8C0002C0DAFF05C0DFFF072AE8D701500302C4
:101C9C00F3CF05F0F4CF06F001500402F350062602
:101CAC0002500302F350062605C001F006C002F0F4
:101CBC00120082868298040E016E3E0EE82EFED72C
:101CCC00012EFCD78288040E016E3E0EE82EFED744
:101CDC00012EFCD7120082868288040E016E3E0E05
:101CEC00E82EFED7012EFCD78298040E016E3E0E14
:101CFC00E82EFED7012EFCD712003132332B3435AF
:101D0C00362D3738392F2A3023243132332B3435C2
:101D1C00362D3738392F2A302324036E000E026EED
:101D2C003A0E036005D02F0E036402D0010E026E32
:101D3C0002C001F001301200026E84820250CBEC22
:101D4C000EF08484FA0EE82EFED78492FA0EE82E5A
:101D5C00FED784821200026E84820250CBEC0EF00D
:101D6C008494FA0EE82EFED78492FA0EE82EFED753
:101D7C0084821200016E01380F0B0F0B300F120012
:101D8C00016E01500F0B300F1200016E01C083FF6A
:021D9C00120033
:020000040030CA
:0E000000FF06181EFF8180FF0FC00FE00F40AB
:00000001FF
